:0400000077EF00F0A6
:08000800046ED8CF05F0E0CF33
:1000100006F00001E9CF0CF0EACF07F0E1CF08F0DD
:10002000E2CF09F0D9CF0AF0DACF0BF0F3CF12F01C
:10003000F4CF13F0FACF14F000C00EF001C00FF0AF
:1000400002C010F003C011F0F2AA2AEF00F0F2B4DF
:100050005BEF00F00EC000F00FC001F010C002F026
:1000600011C003F00CC0E9FF07C0EAFF078E08C00B
:10007000E1FF09C0E2FF0AC0D9FF0BC0DAFF12C0DE
:10008000F3FF13C0F4FF14C0FAFF045006C0E0FFF2
:1000900005C0D8FF1000F76AA60FF66E000EF72213
:1000A0000900F5501200064F6D076F3F5B667D7FBC
:1000B000773979711E00D76A830ED66E010E172626
:1000C00017507D0811E1036A1650F2CF18F0F29E26
:1000D000E2DF18BEF28E946A8B6E010E1626165061
:1000E0000F0801E1166A176AF2942AEF00F0F86A25
:1000F000D09E078E166A176AC150F00BC16E000EB3
:100100000F01386F3C6F396F3A6F3B6F0101886B9D
:10011000776A786A796A000E946E946A8B6AC60E62
:10012000D56ED76A830ED66EF28AC00EF212FFD752
:020130000300CA
:020000040030CA
:0E00000000E1181C00BF81000FC00FE00F4090
:00000001FF
;PIC18F45K22
;CRC=3000  CREATED="10-Ara-20 21:35"
