:1000000015EF00F0EA6A070EE96EEF500DE0020E00
:10001000016E006A002EFED7012EFBD7970E006EF0
:10002000002EFED7EF2EF3D71200F86AD09EC150F3
:10003000F00BC16E000E0F01386F3C6F396F3A6FD5
:100040003B6F0101886B776A786A796A010E926E5C
:10005000000E956E956A8C6A056A928080A04BD0DE
:10006000052A052C0FD0956A0F0E8C6E080E066EB1
:10007000FA0E076E0001C6DF062E01D002D0010184
:10008000F7D70101055002080FE1956A050E8C6E45
:100090000C0E066EFA0E076E0001B4DF062E01D0BC
:1000A00002D00101F7D70101055003080FE1956A5D
:1000B0000A0E8C6E140E066EFA0E076E0001A2DF99
:1000C000062E01D002D00101F7D701010550040826
:1000D00010E1956A090E8C6E080E066EFA0E076E18
:1000E000000190DF062E01D002D00101F7D7056A8A
:0A00F0000101956A8C6AB1D7030084
:020000040030CA
:0E00000000E3181C00BF81000FC00FE00F408E
:00000001FF
;PIC18F45K22
;CRC=F9A8  CREATED="18-Kas-20 19:32"
