:0400000065EF00F0B8
:08000800046ED8CF05F0E0CF33
:1000100006F00001E9CF0CF0EACF07F0E1CF08F0DD
:10002000E2CF09F0D9CF0AF0DACF0BF0F3CF12F01C
:10003000F4CF13F0FACF14F000C00EF001C00FF0AF
:1000400002C010F003C011F0F2A82AEF00F0F2B2E3
:100050004BEF00F00EC000F00FC001F010C002F036
:1000600011C003F00CC0E9FF07C0EAFF078E08C00B
:10007000E1FF09C0E2FF0AC0D9FF0BC0DAFF12C0DE
:10008000F3FF13C0F4FF14C0FAFF045006C0E0FFF2
:1000900005C0D8FF1000946A8B6A166AF2922AEFA4
:1000A00000F0EA6A180EE96EEF500EE0010E016EE4
:1000B000006A002EFED7012EFBD74A0E006E002EDE
:1000C000FED700D0EF2EF2D71200F86AD09E078E2E
:1000D000166AC150F00BC16E000E0F01386F3C6FF5
:1000E000396F3A6F3B6F0101886B776A786A796A7A
:1000F000020E936EFF0E956E936A8A6A956A8C6AF9
:10010000F288C00EF212938281A219D0140E186EDA
:100110000001C7DF16500F0801E1166A162A938204
:1001200081B2FDD7956A16C08CFF080E176EFA0EC5
:10013000186EB7DF172EFBD7956A8C6A0101E3D7DB
:020140000300BA
:020000040030CA
:0E00000000E1181C00BF81000FC00FE00F4090
:00000001FF
;PIC18F45K22
;CRC=F6FD  CREATED="26-Kas-20 22:00"
