:0400000099EF00F084
:08000800046ED8CF05F0E0CF33
:1000100006F00001E9CF0CF0EACF07F0E1CF08F0DD
:10002000E2CF09F0D9CF0AF0DACF0BF0F3CF12F01C
:10003000F4CF13F0FACF14F000C00EF001C00FF0AF
:1000400002C010F003C011F0F2AA2AEF00F0F2B4DF
:100050006DEF00F00EC000F00FC001F010C002F014
:1000600011C003F00CC0E9FF07C0EAFF078E08C00B
:10007000E1FF09C0E2FF0AC0D9FF0BC0DAFF12C0DE
:10008000F3FF13C0F4FF14C0FAFF045006C0E0FFF2
:1000900005C0D8FF1000016A026A006A036A1F5097
:1000A00002E11E5018E0100E206ED8901C361D364E
:1000B000003603361F50035C02E11E50005C07E36C
:1000C0001E50005ED8A003061F50035ED880013684
:1000D0000236202EEAD788EF00F0D76A060ED66ED9
:1000E0001A2A1A50140802E11A6A1B2A1B500F0818
:1000F0001DE1C282C2B2FED7C3CF16F0C4CF17F043
:1001000017C01DF016C01CF01F6A480E1E6EC3D724
:1001100002C019F001C018F00C0E1824016E000E78
:10012000192001C0BEFF1B6A949E8B7EF2942AEFB9
:1001300000F0F86AD09E078E1A6A1B6AC150F00B55
:10014000C16E000E0F01386F3C6F396F3A6F3B6F15
:100150000101886B776A786A796A000E946E946AF6
:100160008B6AC10ED56ED76A060ED66E000E0609D2
:10017000BA6EFA0EBB6E94948B940C0EBD6EB76A79
:10018000B66A010EB96EFC0E0F014917000E491335
:100190000C0EBE6EC050C00B0509C06EC08EC28072
:1001A000C150F00BC16E010E386F000E3C6F396FFD
:1001B0003A6F3B6F016EC250830B0110C26E00D0CC
:0C01C00000D0F28AC00EF212FFD703003C
:020000040030CA
:0E00000000E1181C00BF81000FC00FE00F4090
:00000001FF
;PIC18F45K22
;CRC=C6AB  CREATED="11-Oca-21 23:29"
