:1000000072EF01F0EA6A0F0EE96EEF500DE0020E9A
:10001000016E006A002EFED7012EFBD7970E006EF0
:10002000002EFED7EF2EF3D712008E0E006E14C0F6
:1000300001F013C002F0036A015209E102C001F0AD
:10004000026A080E005E015202E1006A08D0D890F0
:1000500001BE04D0023601360006F9D7019E120017
:100060000F50D8B4A5D01B6E1350D8B4A1D01B5ECE
:1000700005E37F0E1B26D8B09BD006D0810E1B5EF9
:10008000D8A096D0D8B494D01BC000F0016A026A00
:10009000036A1A6A10C019F0198E11C018F012C044
:1000A00017F0190E1B6E1650175E0DE2010E185E4A
:1000B0000AE2195E08E21A5E06E21A2A192A182ACA
:1000C0001650172628D01550185E12E2010E195E40
:1000D0000FE21A5E0DE21A2A192A15501826165038
:1000E000172619E3182A17E1192A15E11A2A13D03D
:1000F00014508009195E0EE2010E1A5E0BE21A2AF4
:1001000014508009192615501826E9E3192AE7E149
:100110001A2AE5D703801B2E01D00BD0D8901736B2
:10012000183619361A36D8900336023601361C3680
:10013000BAD71CA006D0D8900132023203321C324A
:1001400002D0000635E01CBE1ED0D89017361836F7
:1001500019361A361650175E07E2010E185E04E2D1
:10016000195E02E21A5E1AE31550185E05E2010EEE
:10017000195E02E21A5E12E314508009195E03E26E
:10018000010E1A5E0BE3032A09E1022A07E1012AA4
:1001900005E1002A0DE001320232033210C01BF0EB
:1001A00014501B1A1BAE02D0018E06D0019E04D043
:1001B000006A016A026A036A12001350D8B471D04F
:1001C000006E1750D8B46DD0002604E3810E0026CF
:1001D00068E204D07F0E005E64E363E014C01BF0AD
:1001E00018501B1A148E188E16501A02F4CF1DF0D8
:1001F00015501902F4CF03F0F3CF1CF01A02F3509C
:100200001D26F4501C22000E032216501902F35032
:100210001D26F4501C22000E026A032202221450F2
:100220001A02F3501C26F4500322000E022214502E
:100230001902F3500326F4500222000E016A012233
:1002400016501802F3501C26F4500322000E02220E
:10025000012215501802F3500326F4500222000E1A
:10026000012214501802F3500226F4500122002AF1
:1002700001BE05D01C360336023601360006000EDC
:100280001CAE0AD0032A02220122015005E10250CD
:1002900003E1035001E1002A1BBE018E1BAE019E4B
:1002A00004D0006A016A026A036A12008E0E006EB0
:1002B0000F50005E10C002F011C001F0028E00521B
:1002C00009E0D890025202E1015204E00232013208
:1002D000002EF7D710AE05D0011E021E012AD8B499
:1002E000022A1200F86AD09EC150F00BC16E000EB7
:1002F0000F01386F3C6F396F3A6F3B6F0101886BAC
:10030000776A786A796A066A056A086A076A0A6A11
:10031000096A0C6A0B6A0E6A0D68000E0509BA6E4E
:100320000DC0BBFF94948B940C0EBD6EB76AB66A79
:10033000010EB96EFC0E0F014917000E4913FF0E96
:10034000926EC050C00B0609C06EC08EC280C150F4
:10035000F00BC16E030E386F000E3C6F396F3A6FB1
:100360003B6F016EC250830B0110C26E000E016E16
:10037000C250830B0110C26E0A0E0F6E000142DEE6
:10038000C282C2B2FED7C3CF05F0C4CF06F006C00A
:1003900014F005C013F049DE03C012F002C011F0E2
:1003A00001C010F000C00FF0166AC00E156E7F0E6F
:1003B000146E880E136E54DE03C012F002C011F0EA
:1003C00001C010F000C00FF00EC014F00DC013F00B
:1003D0002CDE12C016F011C015F010C014F00FC0C2
:1003E00013F003C01AF002C019F001C018F000C0E9
:1003F00017F0E3DE03C012F002C011F001C010F0EC
:1004000000C00FF003C016F002C015F001C014F0D8
:1004100000C013F01A6A196A186A810E176ECDDED1
:1004200003C012F002C011F001C010F000C00FF0C4
:100430003DDF02C00AF001C009F00AC002F009C0A5
:1004400001F00232013202320132023201C0BEFF3B
:1004500002320230300B006EBD50CF0B0010BD6E6B
:10046000320E0F6ECFDD040E016EC250830B0110F1
:10047000C26E0A0E0F6EC6DDC282C2B2FED7C3CFF5
:1004800007F0C4CF08F008C014F007C013F0CDDDAA
:1004900003C012F002C011F001C010F000C00FF054
:1004A000166AC00E156E7F0E146E880E136ED8DDA0
:1004B00003C012F002C011F001C010F000C00FF034
:1004C00003C016F002C015F001C014F000C013F014
:1004D0001A6A196A7F0E186E860E176E6EDE03C0DA
:1004E00012F002C011F001C010F000C00FF0DEDE0B
:1004F00002C00CF001C00BF00C5203E10B50FE08DF
:1005000002E20C6A0B68000E0509BA6E0BC0BBFF55
:0E0510000CC00EF00BC00DF00F0128D7030039
:020000040030CA
:0E00000000E3181C00BF81000FC00FE00F408E
:00000001FF
;PIC18F45K22
;CRC=EAE9  CREATED="01-Oca-21 22:36"
