:040000006DEF03F0AD
:08000800046ED8CF05F0E0CF33
:1000100006F00001E9CF0CF0EACF07F0E1CF08F0DD
:10002000E2CF09F0D9CF0AF0DACF0BF0F3CF12F01C
:10003000F4CF13F0FACF14F000C00EF001C00FF0AF
:1000400002C010F003C011F09DA02AEF00F09EB096
:10005000F6EF00F00EC000F00FC001F010C002F08B
:1000600011C003F00CC0E9FF07C0EAFF078E08C00B
:10007000E1FF09C0E2FF0AC0D9FF0BC0DAFF12C0DE
:10008000F3FF13C0F4FF14C0FAFF045006C0E0FFF2
:1000900005C0D8FF10008350006E00380F0B016EB2
:1000A00012000F0E9514F009956E8C8400008C8060
:1000B0000000F1DF01C045F08C9000008C80000052
:1000C000EADF01C044F08C900F0E9514956E453810
:1000D000006EF00E001600504410016E12004538FC
:1000E000F00B006E0F0E8C1400108C6E00008C80D4
:1000F00000D08C9012009590959295948C92D1DFBF
:1001000001C044F001BEFBD78C9242B08C8200004B
:100110008C9400008C904338446E0F0E441644C0FB
:1001200045F0DDDF43500F0B446E456ED8DF120003
:100130003F2C01D003D0400E406E01D0406A010E2A
:100140003E5C402640508009416E426A436ED3DFD8
:100150001200EA6A3E0EE96EEF500EE0010E016EEB
:10016000006A002EFED7012EFBD74A0E006E002E2D
:10017000FED700D0EF2EF2D712003D50070A07E05D
:100180000B0A0AE0060A10E0020A14E018D0010E79
:100190003E6E3F6ECDDF18D0426A010E436EABDF7C
:1001A000020E3E6ED6DF10D0010E3E6E020E3F6E86
:1001B000BFDF0AD0426A100E436E9DDF05D0010EEC
:1001C000426E3DC043F097DF12000900F5520CE08B
:1001D000F6CF3BF0F7CF3CF0F5CF3DF0CEDF3BC0A4
:1001E000F6FF3CC0F7FFF1D702EF01F0CF68F70E42
:1001F000CE6E010E3E6E3F6E9BDF240EF66E020E3B
:10020000F76EE3D7080E3B6EFA0E3E6EA2DF3B2E72
:10021000FBD70C0E3D6EB1DF200E3D6EAEDF9E9023
:100220002AEF00F00C20455254414E2053414849DA
:100230004E00766F6C74616A3D2025322E32660066
:10024000736963616B6C696B3D2025322E326600E9
:10025000280E226E0C0E236E010E246E060E256EE5
:100260008C908C928C940F0E9514956E959095921F
:100270009594166AF2BE168EF29E0F0E3E6E69DFE0
:1002800016BEF28E010E216E2150030814E3166A89
:10029000F2BE168EF29E030E456E21DF16BEF28E62
:1002A000166AF2BE168EF29E050E3E6E52DF16BE26
:1002B000F28E212AE9D7166AF2BE168EF29E020E3F
:1002C000456E0DDF16BEF28E166AF2BE168EF29ED7
:1002D000050E3E6E3EDF16BEF28E216A21500308E7
:1002E00015E3036A2150220FE96E000E0320EA6E27
:1002F000EFCF26F0166AF2BE168EF29E426A26C034
:1003000043F0F9DE16BEF28E212AE8D791EF03F012
:100310008E0E006E22C001F021C002F0036A01526D
:1003200009E102C001F0026A080E005E015202E11A
:10033000006A08D0D89001BE04D00236013600060B
:10034000F9D7019EB1EF03F02E50D8B471D0006EF2
:100350003250D8B46DD0002604E3810E002668E246
:1003600004D07F0E005E64E363E02FC036F03350AC
:10037000361A2F8E338E31503502F4CF38F030508C
:100380003402F4CF03F0F3CF37F03502F3503826C0
:10039000F4503722000E032231503402F350382635
:1003A000F4503722000E026A032202222F50350237
:1003B000F3503726F4500322000E02222F5034024D
:1003C000F3500326F4500222000E016A012231503C
:1003D0003302F3503726F4500322000E022201228A
:1003E00030503302F3500326F4500222000E012253
:1003F0002F503302F3500226F4500122002A01BE8E
:1004000005D037360336023601360006000E37AE09
:100410000AD0032A02220122015005E1025003E121
:10042000035001E1002A36BE018E36AE019E04D093
:10043000006A016A026A036A12000900F6CF22F01C
:10044000F7CF23F0166AF2BE168EF29EF5CF3DF07E
:1004500094DE16BEF28E22C0F6FF23C0F7FF212ED7
:10046000ECD712002E50B6082E6E036A2FC032F061
:100470002F8ED8902F323032313203320232013295
:1004800000322E2EF6D732AE0BD0001E011E021EF9
:10049000031E002AD8B4012AD8B4022AD8B4032AE9
:1004A000C0EF02F0D8B203D0EA6A360EE96E006AF5
:1004B000016A026A036A366A376A386A396A3550ED
:1004C0003410331032102CE0200E3A6ED8902E36B5
:1004D0002F363036313636363736383639363550AF
:1004E000395C08E13450385C05E13350375C02E197
:1004F0003250365C0FE33250365E3350D8A0333C76
:10050000375E3450D8A0343C385E3550D8A0353CE6
:10051000395ED88000360136023603363A2ED6D7F9
:1005200036C0EFFF37C0ECFF38C0ECFF39C0ECFF3E
:100530001200E950266E2550286E19E024C031F0D3
:1005400023C030F022C02FF021C02EF0356A346A6B
:10055000200E336E820E326EF7DE03C024F002C02E
:1005600023F001C022F000C021F0282EE7D724C0DC
:1005700031F023C030F022C02FF021C02EF072D70E
:1005800003C024F002C023F001C022F000C021F01B
:1005900024AE0DD02606268A211E221E231E241ECE
:1005A000212AD8B4222AD8B4232AD8B4242A3B0E2C
:1005B0002D6E9A0E2C6ECA0E2B6E2A6A0A0E286EAB
:1005C0002550D8B4262AD882EA6A210EE96E24C0C2
:1005D00031F023C030F022C02FF021C02EF02DC00A
:1005E00035F02CC034F02BC033F02AC032F05ADF83
:1005F000015000520FE12528285C0CE026500CE049
:100600000F0B285C01E04FE226BE4DD026BC04D083
:10061000200E3FD0200E261626AA12D0269A25504C
:10062000D8A426060050266E166AF2BE168EF29EDA
:100630002D0E3D6EA2DD16BEF28E2650006E266A8D
:100640002550285C10E10050266E166AF2BE168E08
:10065000F29E2E0E3D6E91DD16BEF28E2650006E7D
:10066000200E2616000E300E26AA13D0269A2550EC
:10067000D8A426060050266E166AF2BE168EF29E8A
:100680002D0E3D6E7ADD16BEF28E2650006E266A65
:10069000300E0026166AF2BE168EF29E00C03DF0A5
:1006A0006CDD16BEF28ED8922DC031F02CC030F029
:1006B0002BC02FF02AC02EF0356A346A336A0A0E36
:1006C000326EF0DE03C02DF002C02CF001C02BF022
:1006D00000C02AF0282E77D71200F86AD09E078E25
:1006E000C150F00BC16E000E0F01386F3C6F396FB7
:1006F0003A6F3B6F0101886B776A786A796AC150FB
:10070000F00BC16E010E0F01386F000E3C6F396F98
:100710003A6F3B6FC050C00BC06EC08EC2800001EC
:1007200097D5870ECD6ECC6ACF68F70ECE6E9D80C2
:10073000C00EF212000E016EC250830B0110C26E89
:10074000060E006E002EFED70000C282C2B2FED797
:10075000C3CF1FF0C4CF20F020C022F01FC021F073
:10076000D7D5316A306A200E2F6E770E2E6E03C0F9
:1007700035F002C034F001C033F000C032F0E4DDE7
:1007800003C01AF002C019F001C018F000C017F041
:100790001AC031F019C030F018C02FF017C02EF079
:1007A000356A346A480E336E850E326ECDDD03C075
:1007B0001EF002C01DF001C01CF000C01BF0166A44
:1007C000F2BE168EF29E010E3E6E3F6EB1DC16BE7C
:1007D000F28E320EF66E020EF76E080E216E2DDED0
:1007E000890EE96E1AC024F019C023F018C022F057
:1007F00017C021F0020E256E9CDE166AF2BE168E20
:10080000F29E640E3E6EA5DC16BEF28E166AF2BE35
:10081000168EF29E010E3E6E020E3F6E89DC16BEF3
:10082000F28E400EF66E020EF76E0A0E216E05DE97
:10083000890EE96E1EC024F01DC023F01CC022F0FA
:100840001BC021F0020E256E74DE166AF2BE168EF3
:10085000F29E640E3E6E7DDC16BEF28E6BD70300F8
:020000040030CA
:0E00000000E1181C00BF81000FC00FE00F4090
:00000001FF
;PIC18F45K22
;CRC=0978  CREATED="24-Ara-20 22:11"
