:1000000015EF00F0EA6A060EE96EEF500DE0060EFD
:10001000016E006A002EFED7012EFBD77B0E006E0C
:10002000002EFED7EF2EF3D71200F86AD09EC150F3
:10003000F00BC16E000E0F01386F3C6F396F3A6FD5
:100040003B6F0101886B776A786A796A000E936E5C
:1000500092908990020E056EFA0E066E0001D2DFB4
:10006000052E01D002D00101F7D792908980020EAF
:10007000056EFA0E066EC6DF052EFBD70101E8D726
:0200800003007B
:020000040030CA
:0E00000000E2181C00BF81000FC00FE00F408F
:00000001FF
;PIC18F45K22
;CRC=0ABC  CREATED="18-Kas-20 18:45"
